{
  "contractName": "IdentityManagement",
  "abi": [
    {
      "inputs": [
        {
          "internalType": "address",
          "name": "",
          "type": "address"
        },
        {
          "internalType": "uint256",
          "name": "",
          "type": "uint256"
        }
      ],
      "name": "Allergies",
      "outputs": [
        {
          "internalType": "string",
          "name": "",
          "type": "string"
        }
      ],
      "stateMutability": "view",
      "type": "function",
      "constant": true
    },
    {
      "inputs": [
        {
          "internalType": "address",
          "name": "",
          "type": "address"
        }
      ],
      "name": "BloodTypes",
      "outputs": [
        {
          "internalType": "string",
          "name": "BloodType",
          "type": "string"
        },
        {
          "internalType": "address",
          "name": "BloodTypeAdder",
          "type": "address"
        }
      ],
      "stateMutability": "view",
      "type": "function",
      "constant": true
    },
    {
      "inputs": [
        {
          "internalType": "address",
          "name": "",
          "type": "address"
        },
        {
          "internalType": "uint256",
          "name": "",
          "type": "uint256"
        }
      ],
      "name": "Diagnoses",
      "outputs": [
        {
          "internalType": "string",
          "name": "Diagnosis",
          "type": "string"
        },
        {
          "internalType": "string",
          "name": "DiagnosisDate",
          "type": "string"
        },
        {
          "internalType": "address",
          "name": "DiagnosisAdder",
          "type": "address"
        }
      ],
      "stateMutability": "view",
      "type": "function",
      "constant": true
    },
    {
      "inputs": [
        {
          "internalType": "address",
          "name": "",
          "type": "address"
        },
        {
          "internalType": "string",
          "name": "",
          "type": "string"
        }
      ],
      "name": "Documents",
      "outputs": [
        {
          "internalType": "string",
          "name": "DocumentHash",
          "type": "string"
        },
        {
          "internalType": "string",
          "name": "DocumentFileType",
          "type": "string"
        }
      ],
      "stateMutability": "view",
      "type": "function",
      "constant": true
    },
    {
      "inputs": [
        {
          "internalType": "address",
          "name": "",
          "type": "address"
        },
        {
          "internalType": "uint256",
          "name": "",
          "type": "uint256"
        }
      ],
      "name": "MedicalConditions",
      "outputs": [
        {
          "internalType": "string",
          "name": "",
          "type": "string"
        }
      ],
      "stateMutability": "view",
      "type": "function",
      "constant": true
    },
    {
      "inputs": [
        {
          "internalType": "address",
          "name": "",
          "type": "address"
        },
        {
          "internalType": "uint256",
          "name": "",
          "type": "uint256"
        }
      ],
      "name": "MedicalTests",
      "outputs": [
        {
          "internalType": "string",
          "name": "MedicalTest",
          "type": "string"
        },
        {
          "internalType": "string",
          "name": "MedicalTestDate",
          "type": "string"
        },
        {
          "internalType": "string",
          "name": "MedicalTestResult",
          "type": "string"
        },
        {
          "internalType": "address",
          "name": "MedicalTestAdder",
          "type": "address"
        }
      ],
      "stateMutability": "view",
      "type": "function",
      "constant": true
    },
    {
      "inputs": [
        {
          "internalType": "string",
          "name": "",
          "type": "string"
        }
      ],
      "name": "NationalIDToAddress",
      "outputs": [
        {
          "internalType": "address",
          "name": "",
          "type": "address"
        }
      ],
      "stateMutability": "view",
      "type": "function",
      "constant": true
    },
    {
      "inputs": [
        {
          "internalType": "address",
          "name": "",
          "type": "address"
        },
        {
          "internalType": "uint256",
          "name": "",
          "type": "uint256"
        }
      ],
      "name": "Prescriptions",
      "outputs": [
        {
          "internalType": "string",
          "name": "Prescription",
          "type": "string"
        },
        {
          "internalType": "bool",
          "name": "PrescriptionFilled",
          "type": "bool"
        },
        {
          "internalType": "string",
          "name": "PrescriptionDate",
          "type": "string"
        },
        {
          "internalType": "address",
          "name": "PrescriptionAdder",
          "type": "address"
        }
      ],
      "stateMutability": "view",
      "type": "function",
      "constant": true
    },
    {
      "inputs": [
        {
          "internalType": "address",
          "name": "",
          "type": "address"
        },
        {
          "internalType": "uint256",
          "name": "",
          "type": "uint256"
        }
      ],
      "name": "RegiateredDocuments",
      "outputs": [
        {
          "internalType": "string",
          "name": "",
          "type": "string"
        }
      ],
      "stateMutability": "view",
      "type": "function",
      "constant": true
    },
    {
      "inputs": [
        {
          "internalType": "uint256",
          "name": "",
          "type": "uint256"
        }
      ],
      "name": "RegisteredUsers",
      "outputs": [
        {
          "internalType": "address",
          "name": "",
          "type": "address"
        }
      ],
      "stateMutability": "view",
      "type": "function",
      "constant": true
    },
    {
      "inputs": [
        {
          "internalType": "address",
          "name": "",
          "type": "address"
        }
      ],
      "name": "userDetails",
      "outputs": [
        {
          "internalType": "string",
          "name": "Name",
          "type": "string"
        },
        {
          "internalType": "string",
          "name": "Date_Of_Birth",
          "type": "string"
        },
        {
          "internalType": "string",
          "name": "Email",
          "type": "string"
        },
        {
          "internalType": "string",
          "name": "CellNumber",
          "type": "string"
        },
        {
          "internalType": "string",
          "name": "PhoneNumber",
          "type": "string"
        },
        {
          "internalType": "string",
          "name": "HomeAddress",
          "type": "string"
        },
        {
          "internalType": "string",
          "name": "NationalID",
          "type": "string"
        },
        {
          "internalType": "string",
          "name": "PassportNumber",
          "type": "string"
        },
        {
          "internalType": "string",
          "name": "PassportExpiryDate",
          "type": "string"
        },
        {
          "internalType": "bool",
          "name": "EmploymentStatus",
          "type": "bool"
        },
        {
          "internalType": "string",
          "name": "MaxEducation",
          "type": "string"
        }
      ],
      "stateMutability": "view",
      "type": "function",
      "constant": true
    },
    {
      "inputs": [
        {
          "internalType": "string",
          "name": "_DocumentType",
          "type": "string"
        },
        {
          "internalType": "string",
          "name": "_DocumentHash",
          "type": "string"
        },
        {
          "internalType": "address",
          "name": "_Person",
          "type": "address"
        },
        {
          "internalType": "string",
          "name": "_DocumentFileType",
          "type": "string"
        }
      ],
      "name": "AddDocument",
      "outputs": [],
      "stateMutability": "nonpayable",
      "type": "function"
    },
    {
      "inputs": [
        {
          "internalType": "string",
          "name": "_Name",
          "type": "string"
        },
        {
          "internalType": "string",
          "name": "_Date_Of_Birth",
          "type": "string"
        },
        {
          "internalType": "string",
          "name": "_Email",
          "type": "string"
        },
        {
          "internalType": "string",
          "name": "_CellNumber",
          "type": "string"
        },
        {
          "internalType": "string",
          "name": "_PhoneNumber",
          "type": "string"
        },
        {
          "internalType": "string",
          "name": "_HomeAddress",
          "type": "string"
        },
        {
          "internalType": "string",
          "name": "_NationalID",
          "type": "string"
        },
        {
          "internalType": "string",
          "name": "_PassportNumber",
          "type": "string"
        },
        {
          "internalType": "string",
          "name": "_PassportExpiryDate",
          "type": "string"
        },
        {
          "internalType": "bool",
          "name": "_EmploymentStatus",
          "type": "bool"
        },
        {
          "internalType": "string",
          "name": "_MaxEducation",
          "type": "string"
        }
      ],
      "name": "AddPersonalDetails",
      "outputs": [],
      "stateMutability": "nonpayable",
      "type": "function"
    },
    {
      "inputs": [],
      "name": "GetRegisteredUsers",
      "outputs": [
        {
          "internalType": "address[]",
          "name": "",
          "type": "address[]"
        }
      ],
      "stateMutability": "view",
      "type": "function",
      "constant": true
    },
    {
      "inputs": [
        {
          "internalType": "string",
          "name": "_Allergy",
          "type": "string"
        },
        {
          "internalType": "address",
          "name": "_Person",
          "type": "address"
        }
      ],
      "name": "AddAllergies",
      "outputs": [],
      "stateMutability": "nonpayable",
      "type": "function"
    },
    {
      "inputs": [
        {
          "internalType": "string",
          "name": "_MedicalCondition",
          "type": "string"
        },
        {
          "internalType": "address",
          "name": "_Person",
          "type": "address"
        }
      ],
      "name": "AddMedicalConditions",
      "outputs": [],
      "stateMutability": "nonpayable",
      "type": "function"
    },
    {
      "inputs": [
        {
          "internalType": "string",
          "name": "_BloodType",
          "type": "string"
        },
        {
          "internalType": "address",
          "name": "_Person",
          "type": "address"
        }
      ],
      "name": "AddBloodType",
      "outputs": [],
      "stateMutability": "nonpayable",
      "type": "function"
    },
    {
      "inputs": [
        {
          "internalType": "string",
          "name": "_Prescription",
          "type": "string"
        },
        {
          "internalType": "bool",
          "name": "_Status",
          "type": "bool"
        },
        {
          "internalType": "string",
          "name": "_PrescriptionDate",
          "type": "string"
        },
        {
          "internalType": "address",
          "name": "_Person",
          "type": "address"
        }
      ],
      "name": "AddPrescription",
      "outputs": [],
      "stateMutability": "nonpayable",
      "type": "function"
    },
    {
      "inputs": [
        {
          "internalType": "uint256",
          "name": "_PrescriptionIndex",
          "type": "uint256"
        },
        {
          "internalType": "bool",
          "name": "_Status",
          "type": "bool"
        },
        {
          "internalType": "address",
          "name": "_Person",
          "type": "address"
        }
      ],
      "name": "AddPrescriptionStatus",
      "outputs": [],
      "stateMutability": "nonpayable",
      "type": "function"
    },
    {
      "inputs": [
        {
          "internalType": "string",
          "name": "_Diagnosis",
          "type": "string"
        },
        {
          "internalType": "string",
          "name": "_DiagnosisDate",
          "type": "string"
        },
        {
          "internalType": "address",
          "name": "_Person",
          "type": "address"
        }
      ],
      "name": "AddDiagnosis",
      "outputs": [],
      "stateMutability": "nonpayable",
      "type": "function"
    },
    {
      "inputs": [
        {
          "internalType": "string",
          "name": "_MedicalTest",
          "type": "string"
        },
        {
          "internalType": "string",
          "name": "_MedicalTestDate",
          "type": "string"
        },
        {
          "internalType": "string",
          "name": "_MedicalTestResult",
          "type": "string"
        },
        {
          "internalType": "address",
          "name": "_Person",
          "type": "address"
        }
      ],
      "name": "AddMedicalTest",
      "outputs": [],
      "stateMutability": "nonpayable",
      "type": "function"
    },
    {
      "inputs": [
        {
          "internalType": "uint256",
          "name": "_MedicalTestIndex",
          "type": "uint256"
        },
        {
          "internalType": "string",
          "name": "_MedicalTestResult",
          "type": "string"
        },
        {
          "internalType": "address",
          "name": "_Person",
          "type": "address"
        }
      ],
      "name": "UpdateMedicalTestResult",
      "outputs": [],
      "stateMutability": "nonpayable",
      "type": "function"
    },
    {
      "inputs": [
        {
          "internalType": "string",
          "name": "_NationalID",
          "type": "string"
        }
      ],
      "name": "GetAddressFromNationalID",
      "outputs": [
        {
          "internalType": "address",
          "name": "",
          "type": "address"
        }
      ],
      "stateMutability": "view",
      "type": "function",
      "constant": true
    },
    {
      "inputs": [
        {
          "internalType": "address",
          "name": "_Person",
          "type": "address"
        }
      ],
      "name": "GetPersonalDetails",
      "outputs": [
        {
          "components": [
            {
              "internalType": "string",
              "name": "Name",
              "type": "string"
            },
            {
              "internalType": "string",
              "name": "Date_Of_Birth",
              "type": "string"
            },
            {
              "internalType": "string",
              "name": "Email",
              "type": "string"
            },
            {
              "internalType": "string",
              "name": "CellNumber",
              "type": "string"
            },
            {
              "internalType": "string",
              "name": "PhoneNumber",
              "type": "string"
            },
            {
              "internalType": "string",
              "name": "HomeAddress",
              "type": "string"
            },
            {
              "internalType": "string",
              "name": "NationalID",
              "type": "string"
            },
            {
              "internalType": "string",
              "name": "PassportNumber",
              "type": "string"
            },
            {
              "internalType": "string",
              "name": "PassportExpiryDate",
              "type": "string"
            },
            {
              "internalType": "bool",
              "name": "EmploymentStatus",
              "type": "bool"
            },
            {
              "internalType": "string",
              "name": "MaxEducation",
              "type": "string"
            }
          ],
          "internalType": "struct IdentityManagement.PersonalDetails",
          "name": "",
          "type": "tuple"
        }
      ],
      "stateMutability": "view",
      "type": "function",
      "constant": true
    },
    {
      "inputs": [
        {
          "internalType": "address",
          "name": "_Person",
          "type": "address"
        }
      ],
      "name": "GetAllergies",
      "outputs": [
        {
          "internalType": "string[]",
          "name": "",
          "type": "string[]"
        }
      ],
      "stateMutability": "view",
      "type": "function",
      "constant": true
    },
    {
      "inputs": [
        {
          "internalType": "address",
          "name": "_Person",
          "type": "address"
        }
      ],
      "name": "GetMedicalConditions",
      "outputs": [
        {
          "internalType": "string[]",
          "name": "",
          "type": "string[]"
        }
      ],
      "stateMutability": "view",
      "type": "function",
      "constant": true
    },
    {
      "inputs": [
        {
          "internalType": "address",
          "name": "_Person",
          "type": "address"
        }
      ],
      "name": "GetBloodType",
      "outputs": [
        {
          "components": [
            {
              "internalType": "string",
              "name": "BloodType",
              "type": "string"
            },
            {
              "internalType": "address",
              "name": "BloodTypeAdder",
              "type": "address"
            }
          ],
          "internalType": "struct IdentityManagement.BloodType",
          "name": "",
          "type": "tuple"
        }
      ],
      "stateMutability": "view",
      "type": "function",
      "constant": true
    },
    {
      "inputs": [
        {
          "internalType": "address",
          "name": "_Person",
          "type": "address"
        }
      ],
      "name": "GetPrescriptions",
      "outputs": [
        {
          "components": [
            {
              "internalType": "string",
              "name": "Prescription",
              "type": "string"
            },
            {
              "internalType": "bool",
              "name": "PrescriptionFilled",
              "type": "bool"
            },
            {
              "internalType": "string",
              "name": "PrescriptionDate",
              "type": "string"
            },
            {
              "internalType": "address",
              "name": "PrescriptionAdder",
              "type": "address"
            }
          ],
          "internalType": "struct IdentityManagement.Prescription[]",
          "name": "",
          "type": "tuple[]"
        }
      ],
      "stateMutability": "view",
      "type": "function",
      "constant": true
    },
    {
      "inputs": [
        {
          "internalType": "address",
          "name": "_Person",
          "type": "address"
        }
      ],
      "name": "GetDiagnoses",
      "outputs": [
        {
          "components": [
            {
              "internalType": "string",
              "name": "Diagnosis",
              "type": "string"
            },
            {
              "internalType": "string",
              "name": "DiagnosisDate",
              "type": "string"
            },
            {
              "internalType": "address",
              "name": "DiagnosisAdder",
              "type": "address"
            }
          ],
          "internalType": "struct IdentityManagement.Diagnosis[]",
          "name": "",
          "type": "tuple[]"
        }
      ],
      "stateMutability": "view",
      "type": "function",
      "constant": true
    },
    {
      "inputs": [
        {
          "internalType": "address",
          "name": "_Person",
          "type": "address"
        }
      ],
      "name": "GetMedicalTests",
      "outputs": [
        {
          "components": [
            {
              "internalType": "string",
              "name": "MedicalTest",
              "type": "string"
            },
            {
              "internalType": "string",
              "name": "MedicalTestDate",
              "type": "string"
            },
            {
              "internalType": "string",
              "name": "MedicalTestResult",
              "type": "string"
            },
            {
              "internalType": "address",
              "name": "MedicalTestAdder",
              "type": "address"
            }
          ],
          "internalType": "struct IdentityManagement.MedicalTest[]",
          "name": "",
          "type": "tuple[]"
        }
      ],
      "stateMutability": "view",
      "type": "function",
      "constant": true
    },
    {
      "inputs": [
        {
          "internalType": "string",
          "name": "_DocumentType",
          "type": "string"
        },
        {
          "internalType": "address",
          "name": "_Person",
          "type": "address"
        }
      ],
      "name": "GetDocument",
      "outputs": [
        {
          "components": [
            {
              "internalType": "string",
              "name": "DocumentHash",
              "type": "string"
            },
            {
              "internalType": "string",
              "name": "DocumentFileType",
              "type": "string"
            },
            {
              "internalType": "string[]",
              "name": "DocumentTags",
              "type": "string[]"
            }
          ],
          "internalType": "struct IdentityManagement.DocumentStruct",
          "name": "",
          "type": "tuple"
        }
      ],
      "stateMutability": "view",
      "type": "function",
      "constant": true
    },
    {
      "inputs": [
        {
          "internalType": "address",
          "name": "_Person",
          "type": "address"
        }
      ],
      "name": "GetRegisteredDocuments",
      "outputs": [
        {
          "internalType": "string[]",
          "name": "",
          "type": "string[]"
        }
      ],
      "stateMutability": "view",
      "type": "function",
      "constant": true
    }
  ],
  "bytecode": "0x608060405234801561001057600080fd5b506150b7806100206000396000f3fe608060405234801561001057600080fd5b50600436106101f05760003560e01c80637978888f1161010f578063ce07f09d116100a2578063ee5ba14011610071578063ee5ba14014610682578063f3fe48ac1461069e578063f46e7a39146106cf578063f670aab2146106ff576101f0565b8063ce07f09d146105d1578063db970c1714610603578063e0b55a791461061f578063e1252d381461064f576101f0565b8063a1c20fe4116100de578063a1c20fe414610539578063a755334314610569578063a9ada8d114610599578063c9522d82146105b5576101f0565b80637978888f1461049f57806380483448146104bb578063837a2324146104eb57806391e0f1d91461051b576101f0565b80632e07bed6116101875780634f074804116101565780634f074804146104065780635ac304271461042257806360c557e01461043e5780636bbccbd41461046e576101f0565b80632e07bed61461033957806330c48039146103695780633b99e6be1461039957806348dec2a7146103cc576101f0565b8063197b3529116101c3578063197b3529146102a15780631a7b11f0146102d15780631e715701146102ed578063218d458f1461031d576101f0565b80630621b9b9146101f557806307b6d5ed1461021157806311c0553614610241578063162527ff14610271575b600080fd5b61020f600480360381019061020a91906138fe565b61072f565b005b61022b60048036038101906102269190613951565b6107ae565b604051610238919061398d565b60405180910390f35b61025b600480360381019061025691906139a8565b6107ed565b6040516102689190613a78565b60405180910390f35b61028b60048036038101906102869190613a9a565b6108a6565b6040516102989190613bd3565b60405180910390f35b6102bb60048036038101906102b69190613d2a565b6109be565b6040516102c8919061398d565b60405180910390f35b6102eb60048036038101906102e69190613d73565b610a07565b005b61030760048036038101906103029190613a9a565b610adc565b6040516103149190613f0c565b60405180910390f35b61033760048036038101906103329190613d73565b611104565b005b610353600480360381019061034e9190613a9a565b61117a565b6040516103609190613bd3565b60405180910390f35b610383600480360381019061037e91906139a8565b611292565b6040516103909190613a78565b60405180910390f35b6103b360048036038101906103ae91906139a8565b61134b565b6040516103c39493929190613f2e565b60405180910390f35b6103e660048036038101906103e19190613a9a565b611550565b6040516103fd9b9a99989796959493929190613f97565b60405180910390f35b610420600480360381019061041b9190614088565b611b07565b005b61043c60048036038101906104379190614127565b611c43565b005b61045860048036038101906104539190613a9a565b611d73565b604051610465919061430a565b60405180910390f35b61048860048036038101906104839190613a9a565b611f8b565b60405161049692919061432c565b60405180910390f35b6104b960048036038101906104b49190613d73565b612057565b005b6104d560048036038101906104d09190613a9a565b6120cd565b6040516104e29190614399565b60405180910390f35b61050560048036038101906105009190613a9a565b61220e565b60405161051291906144e7565b60405180910390f35b610523612441565b60405161053091906145b8565b60405180910390f35b610553600480360381019061054e91906139a8565b6124cf565b6040516105609190613a78565b60405180910390f35b610583600480360381019061057e9190613d2a565b612588565b604051610590919061398d565b60405180910390f35b6105b360048036038101906105ae91906145da565b6125d0565b005b6105cf60048036038101906105ca91906147e6565b612a0c565b005b6105eb60048036038101906105e691906139a8565b612b1f565b6040516105fa93929190614871565b60405180910390f35b61061d600480360381019061061891906148b6565b612c96565b005b61063960048036038101906106349190613d73565b612de6565b6040516106469190614a55565b60405180910390f35b610669600480360381019061066491906139a8565b613059565b6040516106799493929190614a77565b60405180910390f35b61069c60048036038101906106979190614aca565b6131e3565b005b6106b860048036038101906106b39190614b39565b613258565b6040516106c6929190614b95565b60405180910390f35b6106e960048036038101906106e49190613a9a565b6133af565b6040516106f69190613bd3565b60405180910390f35b61071960048036038101906107149190613a9a565b6134c7565b6040516107269190614cff565b60405180910390f35b81600560008373ffffffffffffffffffffffffffffffffffffffff1673ffffffffffffffffffffffffffffffffffffffff168152602001908152602001600020848154811061078157610780614d21565b5b906000526020600020906004020160010160006101000a81548160ff021916908315150217905550505050565b600a81815481106107be57600080fd5b906000526020600020016000915054906101000a900473ffffffffffffffffffffffffffffffffffffffff1681565b6001602052816000526040600020818154811061080957600080fd5b9060005260206000200160009150915050805461082590614d7f565b80601f016020809104026020016040519081016040528092919081815260200182805461085190614d7f565b801561089e5780601f106108735761010080835404028352916020019161089e565b820191906000526020600020905b81548152906001019060200180831161088157829003601f168201915b505050505081565b6060600160008373ffffffffffffffffffffffffffffffffffffffff1673ffffffffffffffffffffffffffffffffffffffff168152602001908152602001600020805480602002602001604051908101604052809291908181526020016000905b828210156109b357838290600052602060002001805461092690614d7f565b80601f016020809104026020016040519081016040528092919081815260200182805461095290614d7f565b801561099f5780601f106109745761010080835404028352916020019161099f565b820191906000526020600020905b81548152906001019060200180831161098257829003601f168201915b505050505081526020019060010190610907565b505050509050919050565b6009818051602081018201805184825260208301602085012081835280955050505050506000915054906101000a900473ffffffffffffffffffffffffffffffffffffffff1681565b81600460008373ffffffffffffffffffffffffffffffffffffffff1673ffffffffffffffffffffffffffffffffffffffff1681526020019081526020016000206000019081610a569190614f5c565b5033600460008373ffffffffffffffffffffffffffffffffffffffff1673ffffffffffffffffffffffffffffffffffffffff16815260200190815260200160002060010160006101000a81548173ffffffffffffffffffffffffffffffffffffffff021916908373ffffffffffffffffffffffffffffffffffffffff1602179055505050565b610ae4613771565b6000808373ffffffffffffffffffffffffffffffffffffffff1673ffffffffffffffffffffffffffffffffffffffff16815260200190815260200160002060405180610160016040529081600082018054610b3e90614d7f565b80601f0160208091040260200160405190810160405280929190818152602001828054610b6a90614d7f565b8015610bb75780601f10610b8c57610100808354040283529160200191610bb7565b820191906000526020600020905b815481529060010190602001808311610b9a57829003601f168201915b50505050508152602001600182018054610bd090614d7f565b80601f0160208091040260200160405190810160405280929190818152602001828054610bfc90614d7f565b8015610c495780601f10610c1e57610100808354040283529160200191610c49565b820191906000526020600020905b815481529060010190602001808311610c2c57829003601f168201915b50505050508152602001600282018054610c6290614d7f565b80601f0160208091040260200160405190810160405280929190818152602001828054610c8e90614d7f565b8015610cdb5780601f10610cb057610100808354040283529160200191610cdb565b820191906000526020600020905b815481529060010190602001808311610cbe57829003601f168201915b50505050508152602001600382018054610cf490614d7f565b80601f0160208091040260200160405190810160405280929190818152602001828054610d2090614d7f565b8015610d6d5780601f10610d4257610100808354040283529160200191610d6d565b820191906000526020600020905b815481529060010190602001808311610d5057829003601f168201915b50505050508152602001600482018054610d8690614d7f565b80601f0160208091040260200160405190810160405280929190818152602001828054610db290614d7f565b8015610dff5780601f10610dd457610100808354040283529160200191610dff565b820191906000526020600020905b815481529060010190602001808311610de257829003601f168201915b50505050508152602001600582018054610e1890614d7f565b80601f0160208091040260200160405190810160405280929190818152602001828054610e4490614d7f565b8015610e915780601f10610e6657610100808354040283529160200191610e91565b820191906000526020600020905b815481529060010190602001808311610e7457829003601f168201915b50505050508152602001600682018054610eaa90614d7f565b80601f0160208091040260200160405190810160405280929190818152602001828054610ed690614d7f565b8015610f235780601f10610ef857610100808354040283529160200191610f23565b820191906000526020600020905b815481529060010190602001808311610f0657829003601f168201915b50505050508152602001600782018054610f3c90614d7f565b80601f0160208091040260200160405190810160405280929190818152602001828054610f6890614d7f565b8015610fb55780601f10610f8a57610100808354040283529160200191610fb5565b820191906000526020600020905b815481529060010190602001808311610f9857829003601f168201915b50505050508152602001600882018054610fce90614d7f565b80601f0160208091040260200160405190810160405280929190818152602001828054610ffa90614d7f565b80156110475780601f1061101c57610100808354040283529160200191611047565b820191906000526020600020905b81548152906001019060200180831161102a57829003601f168201915b505050505081526020016009820160009054906101000a900460ff16151515158152602001600a8201805461107b90614d7f565b80601f01602080910402602001604051908101604052809291908181526020018280546110a790614d7f565b80156110f45780601f106110c9576101008083540402835291602001916110f4565b820191906000526020600020905b8154815290600101906020018083116110d757829003601f168201915b5050505050815250509050919050565b600360008273ffffffffffffffffffffffffffffffffffffffff1673ffffffffffffffffffffffffffffffffffffffff168152602001908152602001600020829080600181540180825580915050600190039060005260206000200160009091909190915090816111759190614f5c565b505050565b6060600260008373ffffffffffffffffffffffffffffffffffffffff1673ffffffffffffffffffffffffffffffffffffffff168152602001908152602001600020805480602002602001604051908101604052809291908181526020016000905b828210156112875783829060005260206000200180546111fa90614d7f565b80601f016020809104026020016040519081016040528092919081815260200182805461122690614d7f565b80156112735780601f1061124857610100808354040283529160200191611273565b820191906000526020600020905b81548152906001019060200180831161125657829003601f168201915b5050505050815260200190600101906111db565b505050509050919050565b600260205281600052604060002081815481106112ae57600080fd5b906000526020600020016000915091505080546112ca90614d7f565b80601f01602080910402602001604051908101604052809291908181526020018280546112f690614d7f565b80156113435780601f1061131857610100808354040283529160200191611343565b820191906000526020600020905b81548152906001019060200180831161132657829003601f168201915b505050505081565b6007602052816000526040600020818154811061136757600080fd5b90600052602060002090600402016000915091505080600001805461138b90614d7f565b80601f01602080910402602001604051908101604052809291908181526020018280546113b790614d7f565b80156114045780601f106113d957610100808354040283529160200191611404565b820191906000526020600020905b8154815290600101906020018083116113e757829003601f168201915b50505050509080600101805461141990614d7f565b80601f016020809104026020016040519081016040528092919081815260200182805461144590614d7f565b80156114925780601f1061146757610100808354040283529160200191611492565b820191906000526020600020905b81548152906001019060200180831161147557829003601f168201915b5050505050908060020180546114a790614d7f565b80601f01602080910402602001604051908101604052809291908181526020018280546114d390614d7f565b80156115205780601f106114f557610100808354040283529160200191611520565b820191906000526020600020905b81548152906001019060200180831161150357829003601f168201915b5050505050908060030160009054906101000a900473ffffffffffffffffffffffffffffffffffffffff16905084565b600060205280600052604060002060009150905080600001805461157390614d7f565b80601f016020809104026020016040519081016040528092919081815260200182805461159f90614d7f565b80156115ec5780601f106115c1576101008083540402835291602001916115ec565b820191906000526020600020905b8154815290600101906020018083116115cf57829003601f168201915b50505050509080600101805461160190614d7f565b80601f016020809104026020016040519081016040528092919081815260200182805461162d90614d7f565b801561167a5780601f1061164f5761010080835404028352916020019161167a565b820191906000526020600020905b81548152906001019060200180831161165d57829003601f168201915b50505050509080600201805461168f90614d7f565b80601f01602080910402602001604051908101604052809291908181526020018280546116bb90614d7f565b80156117085780601f106116dd57610100808354040283529160200191611708565b820191906000526020600020905b8154815290600101906020018083116116eb57829003601f168201915b50505050509080600301805461171d90614d7f565b80601f016020809104026020016040519081016040528092919081815260200182805461174990614d7f565b80156117965780601f1061176b57610100808354040283529160200191611796565b820191906000526020600020905b81548152906001019060200180831161177957829003601f168201915b5050505050908060040180546117ab90614d7f565b80601f01602080910402602001604051908101604052809291908181526020018280546117d790614d7f565b80156118245780601f106117f957610100808354040283529160200191611824565b820191906000526020600020905b81548152906001019060200180831161180757829003601f168201915b50505050509080600501805461183990614d7f565b80601f016020809104026020016040519081016040528092919081815260200182805461186590614d7f565b80156118b25780601f10611887576101008083540402835291602001916118b2565b820191906000526020600020905b81548152906001019060200180831161189557829003601f168201915b5050505050908060060180546118c790614d7f565b80601f01602080910402602001604051908101604052809291908181526020018280546118f390614d7f565b80156119405780601f1061191557610100808354040283529160200191611940565b820191906000526020600020905b81548152906001019060200180831161192357829003601f168201915b50505050509080600701805461195590614d7f565b80601f016020809104026020016040519081016040528092919081815260200182805461198190614d7f565b80156119ce5780601f106119a3576101008083540402835291602001916119ce565b820191906000526020600020905b8154815290600101906020018083116119b157829003601f168201915b5050505050908060080180546119e390614d7f565b80601f0160208091040260200160405190810160405280929190818152602001828054611a0f90614d7f565b8015611a5c5780601f10611a3157610100808354040283529160200191611a5c565b820191906000526020600020905b815481529060010190602001808311611a3f57829003601f168201915b5050505050908060090160009054906101000a900460ff169080600a018054611a8490614d7f565b80601f0160208091040260200160405190810160405280929190818152602001828054611ab090614d7f565b8015611afd5780601f10611ad257610100808354040283529160200191611afd565b820191906000526020600020905b815481529060010190602001808311611ae057829003601f168201915b505050505090508b565b600560008273ffffffffffffffffffffffffffffffffffffffff1673ffffffffffffffffffffffffffffffffffffffff168152602001908152602001600020604051806080016040528086815260200185151581526020018481526020013373ffffffffffffffffffffffffffffffffffffffff1681525090806001815401808255809150506001900390600052602060002090600402016000909190919091506000820151816000019081611bbd9190614f5c565b5060208201518160010160006101000a81548160ff0219169083151502179055506040820151816002019081611bf39190614f5c565b5060608201518160030160006101000a81548173ffffffffffffffffffffffffffffffffffffffff021916908373ffffffffffffffffffffffffffffffffffffffff160217905550505050505050565b600760008273ffffffffffffffffffffffffffffffffffffffff1673ffffffffffffffffffffffffffffffffffffffff16815260200190815260200160002060405180608001604052808681526020018581526020018481526020013373ffffffffffffffffffffffffffffffffffffffff1681525090806001815401808255809150506001900390600052602060002090600402016000909190919091506000820151816000019081611cf79190614f5c565b506020820151816001019081611d0d9190614f5c565b506040820151816002019081611d239190614f5c565b5060608201518160030160006101000a81548173ffffffffffffffffffffffffffffffffffffffff021916908373ffffffffffffffffffffffffffffffffffffffff160217905550505050505050565b6060600660008373ffffffffffffffffffffffffffffffffffffffff1673ffffffffffffffffffffffffffffffffffffffff168152602001908152602001600020805480602002602001604051908101604052809291908181526020016000905b82821015611f805783829060005260206000209060030201604051806060016040529081600082018054611e0790614d7f565b80601f0160208091040260200160405190810160405280929190818152602001828054611e3390614d7f565b8015611e805780601f10611e5557610100808354040283529160200191611e80565b820191906000526020600020905b815481529060010190602001808311611e6357829003601f168201915b50505050508152602001600182018054611e9990614d7f565b80601f0160208091040260200160405190810160405280929190818152602001828054611ec590614d7f565b8015611f125780601f10611ee757610100808354040283529160200191611f12565b820191906000526020600020905b815481529060010190602001808311611ef557829003601f168201915b505050505081526020016002820160009054906101000a900473ffffffffffffffffffffffffffffffffffffffff1673ffffffffffffffffffffffffffffffffffffffff1673ffffffffffffffffffffffffffffffffffffffff168152505081526020019060010190611dd4565b505050509050919050565b6004602052806000526040600020600091509050806000018054611fae90614d7f565b80601f0160208091040260200160405190810160405280929190818152602001828054611fda90614d7f565b80156120275780601f10611ffc57610100808354040283529160200191612027565b820191906000526020600020905b81548152906001019060200180831161200a57829003601f168201915b5050505050908060010160009054906101000a900473ffffffffffffffffffffffffffffffffffffffff16905082565b600160008273ffffffffffffffffffffffffffffffffffffffff1673ffffffffffffffffffffffffffffffffffffffff168152602001908152602001600020829080600181540180825580915050600190039060005260206000200160009091909190915090816120c89190614f5c565b505050565b6120d56137cd565b600460008373ffffffffffffffffffffffffffffffffffffffff1673ffffffffffffffffffffffffffffffffffffffff16815260200190815260200160002060405180604001604052908160008201805461212f90614d7f565b80601f016020809104026020016040519081016040528092919081815260200182805461215b90614d7f565b80156121a85780601f1061217d576101008083540402835291602001916121a8565b820191906000526020600020905b81548152906001019060200180831161218b57829003601f168201915b505050505081526020016001820160009054906101000a900473ffffffffffffffffffffffffffffffffffffffff1673ffffffffffffffffffffffffffffffffffffffff1673ffffffffffffffffffffffffffffffffffffffff16815250509050919050565b6060600560008373ffffffffffffffffffffffffffffffffffffffff1673ffffffffffffffffffffffffffffffffffffffff168152602001908152602001600020805480602002602001604051908101604052809291908181526020016000905b8282101561243657838290600052602060002090600402016040518060800160405290816000820180546122a290614d7f565b80601f01602080910402602001604051908101604052809291908181526020018280546122ce90614d7f565b801561231b5780601f106122f05761010080835404028352916020019161231b565b820191906000526020600020905b8154815290600101906020018083116122fe57829003601f168201915b505050505081526020016001820160009054906101000a900460ff1615151515815260200160028201805461234f90614d7f565b80601f016020809104026020016040519081016040528092919081815260200182805461237b90614d7f565b80156123c85780601f1061239d576101008083540402835291602001916123c8565b820191906000526020600020905b8154815290600101906020018083116123ab57829003601f168201915b505050505081526020016003820160009054906101000a900473ffffffffffffffffffffffffffffffffffffffff1673ffffffffffffffffffffffffffffffffffffffff1673ffffffffffffffffffffffffffffffffffffffff16815250508152602001906001019061226f565b505050509050919050565b6060600a8054806020026020016040519081016040528092919081815260200182805480156124c557602002820191906000526020600020905b8160009054906101000a900473ffffffffffffffffffffffffffffffffffffffff1673ffffffffffffffffffffffffffffffffffffffff168152602001906001019080831161247b575b5050505050905090565b600360205281600052604060002081815481106124eb57600080fd5b9060005260206000200160009150915050805461250790614d7f565b80601f016020809104026020016040519081016040528092919081815260200182805461253390614d7f565b80156125805780601f1061255557610100808354040283529160200191612580565b820191906000526020600020905b81548152906001019060200180831161256357829003601f168201915b505050505081565b600060098260405161259a919061506a565b908152602001604051809103902060009054906101000a900473ffffffffffffffffffffffffffffffffffffffff169050919050565b8a6000803373ffffffffffffffffffffffffffffffffffffffff1673ffffffffffffffffffffffffffffffffffffffff168152602001908152602001600020600001908161261e9190614f5c565b50896000803373ffffffffffffffffffffffffffffffffffffffff1673ffffffffffffffffffffffffffffffffffffffff168152602001908152602001600020600101908161266d9190614f5c565b50886000803373ffffffffffffffffffffffffffffffffffffffff1673ffffffffffffffffffffffffffffffffffffffff16815260200190815260200160002060020190816126bc9190614f5c565b50876000803373ffffffffffffffffffffffffffffffffffffffff1673ffffffffffffffffffffffffffffffffffffffff168152602001908152602001600020600301908161270b9190614f5c565b50866000803373ffffffffffffffffffffffffffffffffffffffff1673ffffffffffffffffffffffffffffffffffffffff168152602001908152602001600020600401908161275a9190614f5c565b50856000803373ffffffffffffffffffffffffffffffffffffffff1673ffffffffffffffffffffffffffffffffffffffff16815260200190815260200160002060050190816127a99190614f5c565b50846000803373ffffffffffffffffffffffffffffffffffffffff1673ffffffffffffffffffffffffffffffffffffffff16815260200190815260200160002060060190816127f89190614f5c565b50836000803373ffffffffffffffffffffffffffffffffffffffff1673ffffffffffffffffffffffffffffffffffffffff16815260200190815260200160002060070190816128479190614f5c565b50826000803373ffffffffffffffffffffffffffffffffffffffff1673ffffffffffffffffffffffffffffffffffffffff16815260200190815260200160002060080190816128969190614f5c565b50816000803373ffffffffffffffffffffffffffffffffffffffff1673ffffffffffffffffffffffffffffffffffffffff16815260200190815260200160002060090160006101000a81548160ff021916908315150217905550806000803373ffffffffffffffffffffffffffffffffffffffff1673ffffffffffffffffffffffffffffffffffffffff168152602001908152602001600020600a01908161293e9190614f5c565b5033600986604051612950919061506a565b908152602001604051809103902060006101000a81548173ffffffffffffffffffffffffffffffffffffffff021916908373ffffffffffffffffffffffffffffffffffffffff160217905550600a339080600181540180825580915050600190039060005260206000200160009091909190916101000a81548173ffffffffffffffffffffffffffffffffffffffff021916908373ffffffffffffffffffffffffffffffffffffffff1602179055505050505050505050505050565b600660008273ffffffffffffffffffffffffffffffffffffffff1673ffffffffffffffffffffffffffffffffffffffff16815260200190815260200160002060405180606001604052808581526020018481526020013373ffffffffffffffffffffffffffffffffffffffff1681525090806001815401808255809150506001900390600052602060002090600302016000909190919091506000820151816000019081612aba9190614f5c565b506020820151816001019081612ad09190614f5c565b5060408201518160020160006101000a81548173ffffffffffffffffffffffffffffffffffffffff021916908373ffffffffffffffffffffffffffffffffffffffff1602179055505050505050565b60066020528160005260406000208181548110612b3b57600080fd5b906000526020600020906003020160009150915050806000018054612b5f90614d7f565b80601f0160208091040260200160405190810160405280929190818152602001828054612b8b90614d7f565b8015612bd85780601f10612bad57610100808354040283529160200191612bd8565b820191906000526020600020905b815481529060010190602001808311612bbb57829003601f168201915b505050505090806001018054612bed90614d7f565b80601f0160208091040260200160405190810160405280929190818152602001828054612c1990614d7f565b8015612c665780601f10612c3b57610100808354040283529160200191612c66565b820191906000526020600020905b815481529060010190602001808311612c4957829003601f168201915b5050505050908060020160009054906101000a900473ffffffffffffffffffffffffffffffffffffffff16905083565b82600860008473ffffffffffffffffffffffffffffffffffffffff1673ffffffffffffffffffffffffffffffffffffffff16815260200190815260200160002085604051612ce4919061506a565b90815260200160405180910390206000019081612d019190614f5c565b5080600860008473ffffffffffffffffffffffffffffffffffffffff1673ffffffffffffffffffffffffffffffffffffffff16815260200190815260200160002085604051612d50919061506a565b90815260200160405180910390206001019081612d6d9190614f5c565b50600260008373ffffffffffffffffffffffffffffffffffffffff1673ffffffffffffffffffffffffffffffffffffffff16815260200190815260200160002084908060018154018082558091505060019003906000526020600020016000909190919091509081612ddf9190614f5c565b5050505050565b612dee6137fd565b600860008373ffffffffffffffffffffffffffffffffffffffff1673ffffffffffffffffffffffffffffffffffffffff16815260200190815260200160002083604051612e3b919061506a565b9081526020016040518091039020604051806060016040529081600082018054612e6490614d7f565b80601f0160208091040260200160405190810160405280929190818152602001828054612e9090614d7f565b8015612edd5780601f10612eb257610100808354040283529160200191612edd565b820191906000526020600020905b815481529060010190602001808311612ec057829003601f168201915b50505050508152602001600182018054612ef690614d7f565b80601f0160208091040260200160405190810160405280929190818152602001828054612f2290614d7f565b8015612f6f5780601f10612f4457610100808354040283529160200191612f6f565b820191906000526020600020905b815481529060010190602001808311612f5257829003601f168201915b5050505050815260200160028201805480602002602001604051908101604052809291908181526020016000905b82821015613049578382906000526020600020018054612fbc90614d7f565b80601f0160208091040260200160405190810160405280929190818152602001828054612fe890614d7f565b80156130355780601f1061300a57610100808354040283529160200191613035565b820191906000526020600020905b81548152906001019060200180831161301857829003601f168201915b505050505081526020019060010190612f9d565b5050505081525050905092915050565b6005602052816000526040600020818154811061307557600080fd5b90600052602060002090600402016000915091505080600001805461309990614d7f565b80601f01602080910402602001604051908101604052809291908181526020018280546130c590614d7f565b80156131125780601f106130e757610100808354040283529160200191613112565b820191906000526020600020905b8154815290600101906020018083116130f557829003601f168201915b5050505050908060010160009054906101000a900460ff169080600201805461313a90614d7f565b80601f016020809104026020016040519081016040528092919081815260200182805461316690614d7f565b80156131b35780601f10613188576101008083540402835291602001916131b3565b820191906000526020600020905b81548152906001019060200180831161319657829003601f168201915b5050505050908060030160009054906101000a900473ffffffffffffffffffffffffffffffffffffffff16905084565b81600760008373ffffffffffffffffffffffffffffffffffffffff1673ffffffffffffffffffffffffffffffffffffffff168152602001908152602001600020848154811061323557613234614d21565b5b906000526020600020906004020160020190816132529190614f5c565b50505050565b6008602052816000526040600020818051602081018201805184825260208301602085012081835280955050505050506000915091505080600001805461329e90614d7f565b80601f01602080910402602001604051908101604052809291908181526020018280546132ca90614d7f565b80156133175780601f106132ec57610100808354040283529160200191613317565b820191906000526020600020905b8154815290600101906020018083116132fa57829003601f168201915b50505050509080600101805461332c90614d7f565b80601f016020809104026020016040519081016040528092919081815260200182805461335890614d7f565b80156133a55780601f1061337a576101008083540402835291602001916133a5565b820191906000526020600020905b81548152906001019060200180831161338857829003601f168201915b5050505050905082565b6060600360008373ffffffffffffffffffffffffffffffffffffffff1673ffffffffffffffffffffffffffffffffffffffff168152602001908152602001600020805480602002602001604051908101604052809291908181526020016000905b828210156134bc57838290600052602060002001805461342f90614d7f565b80601f016020809104026020016040519081016040528092919081815260200182805461345b90614d7f565b80156134a85780601f1061347d576101008083540402835291602001916134a8565b820191906000526020600020905b81548152906001019060200180831161348b57829003601f168201915b505050505081526020019060010190613410565b505050509050919050565b6060600760008373ffffffffffffffffffffffffffffffffffffffff1673ffffffffffffffffffffffffffffffffffffffff168152602001908152602001600020805480602002602001604051908101604052809291908181526020016000905b82821015613766578382906000526020600020906004020160405180608001604052908160008201805461355b90614d7f565b80601f016020809104026020016040519081016040528092919081815260200182805461358790614d7f565b80156135d45780601f106135a9576101008083540402835291602001916135d4565b820191906000526020600020905b8154815290600101906020018083116135b757829003601f168201915b505050505081526020016001820180546135ed90614d7f565b80601f016020809104026020016040519081016040528092919081815260200182805461361990614d7f565b80156136665780601f1061363b57610100808354040283529160200191613666565b820191906000526020600020905b81548152906001019060200180831161364957829003601f168201915b5050505050815260200160028201805461367f90614d7f565b80601f01602080910402602001604051908101604052809291908181526020018280546136ab90614d7f565b80156136f85780601f106136cd576101008083540402835291602001916136f8565b820191906000526020600020905b8154815290600101906020018083116136db57829003601f168201915b505050505081526020016003820160009054906101000a900473ffffffffffffffffffffffffffffffffffffffff1673ffffffffffffffffffffffffffffffffffffffff1673ffffffffffffffffffffffffffffffffffffffff168152505081526020019060010190613528565b505050509050919050565b604051806101600160405280606081526020016060815260200160608152602001606081526020016060815260200160608152602001606081526020016060815260200160608152602001600015158152602001606081525090565b604051806040016040528060608152602001600073ffffffffffffffffffffffffffffffffffffffff1681525090565b60405180606001604052806060815260200160608152602001606081525090565b6000604051905090565b600080fd5b600080fd5b6000819050919050565b61384581613832565b811461385057600080fd5b50565b6000813590506138628161383c565b92915050565b60008115159050919050565b61387d81613868565b811461388857600080fd5b50565b60008135905061389a81613874565b92915050565b600073ffffffffffffffffffffffffffffffffffffffff82169050919050565b60006138cb826138a0565b9050919050565b6138db816138c0565b81146138e657600080fd5b50565b6000813590506138f8816138d2565b92915050565b60008060006060848603121561391757613916613828565b5b600061392586828701613853565b93505060206139368682870161388b565b9250506040613947868287016138e9565b9150509250925092565b60006020828403121561396757613966613828565b5b600061397584828501613853565b91505092915050565b613987816138c0565b82525050565b60006020820190506139a2600083018461397e565b92915050565b600080604083850312156139bf576139be613828565b5b60006139cd858286016138e9565b92505060206139de85828601613853565b9150509250929050565b600081519050919050565b600082825260208201905092915050565b60005b83811015613a22578082015181840152602081019050613a07565b60008484015250505050565b6000601f19601f8301169050919050565b6000613a4a826139e8565b613a5481856139f3565b9350613a64818560208601613a04565b613a6d81613a2e565b840191505092915050565b60006020820190508181036000830152613a928184613a3f565b905092915050565b600060208284031215613ab057613aaf613828565b5b6000613abe848285016138e9565b91505092915050565b600081519050919050565b600082825260208201905092915050565b6000819050602082019050919050565b600082825260208201905092915050565b6000613b0f826139e8565b613b198185613af3565b9350613b29818560208601613a04565b613b3281613a2e565b840191505092915050565b6000613b498383613b04565b905092915050565b6000602082019050919050565b6000613b6982613ac7565b613b738185613ad2565b935083602082028501613b8585613ae3565b8060005b85811015613bc15784840389528151613ba28582613b3d565b9450613bad83613b51565b925060208a01995050600181019050613b89565b50829750879550505050505092915050565b60006020820190508181036000830152613bed8184613b5e565b905092915050565b600080fd5b600080fd5b7f4e487b7100000000000000000000000000000000000000000000000000000000600052604160045260246000fd5b613c3782613a2e565b810181811067ffffffffffffffff82111715613c5657613c55613bff565b5b80604052505050565b6000613c6961381e565b9050613c758282613c2e565b919050565b600067ffffffffffffffff821115613c9557613c94613bff565b5b613c9e82613a2e565b9050602081019050919050565b82818337600083830152505050565b6000613ccd613cc884613c7a565b613c5f565b905082815260208101848484011115613ce957613ce8613bfa565b5b613cf4848285613cab565b509392505050565b600082601f830112613d1157613d10613bf5565b5b8135613d21848260208601613cba565b91505092915050565b600060208284031215613d4057613d3f613828565b5b600082013567ffffffffffffffff811115613d5e57613d5d61382d565b5b613d6a84828501613cfc565b91505092915050565b60008060408385031215613d8a57613d89613828565b5b600083013567ffffffffffffffff811115613da857613da761382d565b5b613db485828601613cfc565b9250506020613dc5858286016138e9565b9150509250929050565b613dd881613868565b82525050565b6000610160830160008301518482036000860152613dfc8282613b04565b91505060208301518482036020860152613e168282613b04565b91505060408301518482036040860152613e308282613b04565b91505060608301518482036060860152613e4a8282613b04565b91505060808301518482036080860152613e648282613b04565b91505060a083015184820360a0860152613e7e8282613b04565b91505060c083015184820360c0860152613e988282613b04565b91505060e083015184820360e0860152613eb28282613b04565b915050610100830151848203610100860152613ece8282613b04565b915050610120830151613ee5610120860182613dcf565b50610140830151848203610140860152613eff8282613b04565b9150508091505092915050565b60006020820190508181036000830152613f268184613dde565b905092915050565b60006080820190508181036000830152613f488187613a3f565b90508181036020830152613f5c8186613a3f565b90508181036040830152613f708185613a3f565b9050613f7f606083018461397e565b95945050505050565b613f9181613868565b82525050565b6000610160820190508181036000830152613fb2818e613a3f565b90508181036020830152613fc6818d613a3f565b90508181036040830152613fda818c613a3f565b90508181036060830152613fee818b613a3f565b90508181036080830152614002818a613a3f565b905081810360a08301526140168189613a3f565b905081810360c083015261402a8188613a3f565b905081810360e083015261403e8187613a3f565b90508181036101008301526140538186613a3f565b9050614063610120830185613f88565b8181036101408301526140768184613a3f565b90509c9b505050505050505050505050565b600080600080608085870312156140a2576140a1613828565b5b600085013567ffffffffffffffff8111156140c0576140bf61382d565b5b6140cc87828801613cfc565b94505060206140dd8782880161388b565b935050604085013567ffffffffffffffff8111156140fe576140fd61382d565b5b61410a87828801613cfc565b925050606061411b878288016138e9565b91505092959194509250565b6000806000806080858703121561414157614140613828565b5b600085013567ffffffffffffffff81111561415f5761415e61382d565b5b61416b87828801613cfc565b945050602085013567ffffffffffffffff81111561418c5761418b61382d565b5b61419887828801613cfc565b935050604085013567ffffffffffffffff8111156141b9576141b861382d565b5b6141c587828801613cfc565b92505060606141d6878288016138e9565b91505092959194509250565b600081519050919050565b600082825260208201905092915050565b6000819050602082019050919050565b614217816138c0565b82525050565b6000606083016000830151848203600086015261423a8282613b04565b915050602083015184820360208601526142548282613b04565b9150506040830151614269604086018261420e565b508091505092915050565b6000614280838361421d565b905092915050565b6000602082019050919050565b60006142a0826141e2565b6142aa81856141ed565b9350836020820285016142bc856141fe565b8060005b858110156142f857848403895281516142d98582614274565b94506142e483614288565b925060208a019950506001810190506142c0565b50829750879550505050505092915050565b600060208201905081810360008301526143248184614295565b905092915050565b600060408201905081810360008301526143468185613a3f565b9050614355602083018461397e565b9392505050565b600060408301600083015184820360008601526143798282613b04565b915050602083015161438e602086018261420e565b508091505092915050565b600060208201905081810360008301526143b3818461435c565b905092915050565b600081519050919050565b600082825260208201905092915050565b6000819050602082019050919050565b600060808301600083015184820360008601526144048282613b04565b91505060208301516144196020860182613dcf565b50604083015184820360408601526144318282613b04565b9150506060830151614446606086018261420e565b508091505092915050565b600061445d83836143e7565b905092915050565b6000602082019050919050565b600061447d826143bb565b61448781856143c6565b935083602082028501614499856143d7565b8060005b858110156144d557848403895281516144b68582614451565b94506144c183614465565b925060208a0199505060018101905061449d565b50829750879550505050505092915050565b600060208201905081810360008301526145018184614472565b905092915050565b600081519050919050565b600082825260208201905092915050565b6000819050602082019050919050565b6000614541838361420e565b60208301905092915050565b6000602082019050919050565b600061456582614509565b61456f8185614514565b935061457a83614525565b8060005b838110156145ab5781516145928882614535565b975061459d8361454d565b92505060018101905061457e565b5085935050505092915050565b600060208201905081810360008301526145d2818461455a565b905092915050565b60008060008060008060008060008060006101608c8e031215614600576145ff613828565b5b60008c013567ffffffffffffffff81111561461e5761461d61382d565b5b61462a8e828f01613cfc565b9b505060208c013567ffffffffffffffff81111561464b5761464a61382d565b5b6146578e828f01613cfc565b9a505060408c013567ffffffffffffffff8111156146785761467761382d565b5b6146848e828f01613cfc565b99505060608c013567ffffffffffffffff8111156146a5576146a461382d565b5b6146b18e828f01613cfc565b98505060808c013567ffffffffffffffff8111156146d2576146d161382d565b5b6146de8e828f01613cfc565b97505060a08c013567ffffffffffffffff8111156146ff576146fe61382d565b5b61470b8e828f01613cfc565b96505060c08c013567ffffffffffffffff81111561472c5761472b61382d565b5b6147388e828f01613cfc565b95505060e08c013567ffffffffffffffff8111156147595761475861382d565b5b6147658e828f01613cfc565b9450506101008c013567ffffffffffffffff8111156147875761478661382d565b5b6147938e828f01613cfc565b9350506101206147a58e828f0161388b565b9250506101408c013567ffffffffffffffff8111156147c7576147c661382d565b5b6147d38e828f01613cfc565b9150509295989b509295989b9093969950565b6000806000606084860312156147ff576147fe613828565b5b600084013567ffffffffffffffff81111561481d5761481c61382d565b5b61482986828701613cfc565b935050602084013567ffffffffffffffff81111561484a5761484961382d565b5b61485686828701613cfc565b9250506040614867868287016138e9565b9150509250925092565b6000606082019050818103600083015261488b8186613a3f565b9050818103602083015261489f8185613a3f565b90506148ae604083018461397e565b949350505050565b600080600080608085870312156148d0576148cf613828565b5b600085013567ffffffffffffffff8111156148ee576148ed61382d565b5b6148fa87828801613cfc565b945050602085013567ffffffffffffffff81111561491b5761491a61382d565b5b61492787828801613cfc565b9350506040614938878288016138e9565b925050606085013567ffffffffffffffff8111156149595761495861382d565b5b61496587828801613cfc565b91505092959194509250565b600082825260208201905092915050565b600061498d82613ac7565b6149978185614971565b9350836020820285016149a985613ae3565b8060005b858110156149e557848403895281516149c68582613b3d565b94506149d183613b51565b925060208a019950506001810190506149ad565b50829750879550505050505092915050565b60006060830160008301518482036000860152614a148282613b04565b91505060208301518482036020860152614a2e8282613b04565b91505060408301518482036040860152614a488282614982565b9150508091505092915050565b60006020820190508181036000830152614a6f81846149f7565b905092915050565b60006080820190508181036000830152614a918187613a3f565b9050614aa06020830186613f88565b8181036040830152614ab28185613a3f565b9050614ac1606083018461397e565b95945050505050565b600080600060608486031215614ae357614ae2613828565b5b6000614af186828701613853565b935050602084013567ffffffffffffffff811115614b1257614b1161382d565b5b614b1e86828701613cfc565b9250506040614b2f868287016138e9565b9150509250925092565b60008060408385031215614b5057614b4f613828565b5b6000614b5e858286016138e9565b925050602083013567ffffffffffffffff811115614b7f57614b7e61382d565b5b614b8b85828601613cfc565b9150509250929050565b60006040820190508181036000830152614baf8185613a3f565b90508181036020830152614bc38184613a3f565b90509392505050565b600081519050919050565b600082825260208201905092915050565b6000819050602082019050919050565b60006080830160008301518482036000860152614c158282613b04565b91505060208301518482036020860152614c2f8282613b04565b91505060408301518482036040860152614c498282613b04565b9150506060830151614c5e606086018261420e565b508091505092915050565b6000614c758383614bf8565b905092915050565b6000602082019050919050565b6000614c9582614bcc565b614c9f8185614bd7565b935083602082028501614cb185614be8565b8060005b85811015614ced5784840389528151614cce8582614c69565b9450614cd983614c7d565b925060208a01995050600181019050614cb5565b50829750879550505050505092915050565b60006020820190508181036000830152614d198184614c8a565b905092915050565b7f4e487b7100000000000000000000000000000000000000000000000000000000600052603260045260246000fd5b7f4e487b7100000000000000000000000000000000000000000000000000000000600052602260045260246000fd5b60006002820490506001821680614d9757607f821691505b602082108103614daa57614da9614d50565b5b50919050565b60008190508160005260206000209050919050565b60006020601f8301049050919050565b600082821b905092915050565b600060088302614e127fffffffffffffffffffffffffffffffffffffffffffffffffffffffffffffffff82614dd5565b614e1c8683614dd5565b95508019841693508086168417925050509392505050565b6000819050919050565b6000614e59614e54614e4f84613832565b614e34565b613832565b9050919050565b6000819050919050565b614e7383614e3e565b614e87614e7f82614e60565b848454614de2565b825550505050565b600090565b614e9c614e8f565b614ea7818484614e6a565b505050565b5b81811015614ecb57614ec0600082614e94565b600181019050614ead565b5050565b601f821115614f1057614ee181614db0565b614eea84614dc5565b81016020851015614ef9578190505b614f0d614f0585614dc5565b830182614eac565b50505b505050565b600082821c905092915050565b6000614f3360001984600802614f15565b1980831691505092915050565b6000614f4c8383614f22565b9150826002028217905092915050565b614f65826139e8565b67ffffffffffffffff811115614f7e57614f7d613bff565b5b614f888254614d7f565b614f93828285614ecf565b600060209050601f831160018114614fc65760008415614fb4578287015190505b614fbe8582614f40565b865550615026565b601f198416614fd486614db0565b60005b82811015614ffc57848901518255600182019150602085019450602081019050614fd7565b868310156150195784890151615015601f891682614f22565b8355505b6001600288020188555050505b505050505050565b600081905092915050565b6000615044826139e8565b61504e818561502e565b935061505e818560208601613a04565b80840191505092915050565b60006150768284615039565b91508190509291505056fea2646970667358221220aa291e7f446ba4315d6ad6cc6aaff2207941d1da76cbb7fcac2a9ffd58ed767064736f6c63430008110033",
  "immutableReferences": {},
  "source": "// SPDX-License-Identifier: MIT\npragma solidity >=0.4.25 <0.9.0;\n\ncontract IdentityManagement {\n\n\nstruct PersonalDetails {\n    string Name;\n    string Date_Of_Birth;\n    string Email;\n    string CellNumber;\n    string PhoneNumber;\n    string HomeAddress;\n    string NationalID;\n    string PassportNumber;\n    string PassportExpiryDate;\n    bool EmploymentStatus;\n    string MaxEducation;\n}\n\nstruct BloodType {\n  string BloodType;\n  address BloodTypeAdder;\n}\n\nstruct Prescription {\n  string Prescription;\n  bool PrescriptionFilled;\n  string PrescriptionDate;\n  address PrescriptionAdder;\n}\n\nstruct Diagnosis {\n  string Diagnosis;\n  string DiagnosisDate;\n  address DiagnosisAdder;\n}\n\nstruct MedicalTest {\n  string MedicalTest;\n  string MedicalTestDate;\n  string MedicalTestResult;\n  address MedicalTestAdder;\n}\n\nstruct DocumentStruct{\n    string DocumentHash;\n    string DocumentFileType;\n    string[] DocumentTags;\n}\n\nmapping (address => PersonalDetails) public userDetails;\nmapping (address =>string[]) public Allergies;\nmapping (address =>string[]) public RegiateredDocuments;\nmapping (address =>string[]) public MedicalConditions;\nmapping (address =>BloodType) public BloodTypes;\nmapping (address =>Prescription[]) public Prescriptions;\nmapping (address =>Diagnosis[]) public Diagnoses;\nmapping (address =>MedicalTest[]) public MedicalTests;\nmapping (address =>mapping(string=>DocumentStruct)) public Documents;//{address=>{documentType=>DocumentStruct}\nmapping (string => address) public NationalIDToAddress;\n\naddress[] public RegisteredUsers;\n\nfunction AddDocument(string memory _DocumentType, string memory _DocumentHash, address _Person, string memory _DocumentFileType) public {\n    Documents[_Person][_DocumentType].DocumentHash = _DocumentHash;\n    Documents[_Person][_DocumentType].DocumentFileType = _DocumentFileType;\n\n\n    \n    RegiateredDocuments[_Person].push(_DocumentType);\n}\n\n\n\nfunction AddPersonalDetails(string memory _Name, string memory _Date_Of_Birth, string memory _Email, string memory _CellNumber, string memory _PhoneNumber, string memory _HomeAddress, string memory _NationalID, string memory _PassportNumber, string memory _PassportExpiryDate, bool _EmploymentStatus, string memory _MaxEducation) public {\n    userDetails[msg.sender].Name = _Name;\n    userDetails[msg.sender].Date_Of_Birth = _Date_Of_Birth;\n    userDetails[msg.sender].Email = _Email;\n    userDetails[msg.sender].CellNumber = _CellNumber;\n    userDetails[msg.sender].PhoneNumber = _PhoneNumber;\n    userDetails[msg.sender].HomeAddress = _HomeAddress;\n    userDetails[msg.sender].NationalID = _NationalID;\n    userDetails[msg.sender].PassportNumber = _PassportNumber;\n    userDetails[msg.sender].PassportExpiryDate = _PassportExpiryDate;\n    userDetails[msg.sender].EmploymentStatus = _EmploymentStatus;\n    userDetails[msg.sender].MaxEducation = _MaxEducation;\n    NationalIDToAddress[_NationalID] = msg.sender;\n\n    RegisteredUsers.push(msg.sender);\n}\n\n\nfunction GetRegisteredUsers() public view returns (address[] memory) {\n    return RegisteredUsers;\n}\n\n\n\n\nfunction AddAllergies(string memory _Allergy, address _Person) public {\n    Allergies[_Person].push(_Allergy);\n}\n\nfunction AddMedicalConditions(string memory _MedicalCondition, address _Person) public {\n    MedicalConditions[_Person].push(_MedicalCondition);\n}\n\nfunction AddBloodType(string memory _BloodType, address _Person) public {\n    BloodTypes[_Person].BloodType = _BloodType;\n    BloodTypes[_Person].BloodTypeAdder = msg.sender;\n}\n\nfunction AddPrescription(string memory _Prescription, bool _Status , string memory _PrescriptionDate, address _Person) public {\n    Prescriptions[_Person].push(Prescription(_Prescription,_Status, _PrescriptionDate, msg.sender));\n}\n\nfunction AddPrescriptionStatus(uint _PrescriptionIndex, bool _Status, address _Person) public {\n    Prescriptions[_Person][_PrescriptionIndex].PrescriptionFilled = _Status;\n}\n\nfunction AddDiagnosis(string memory _Diagnosis, string memory _DiagnosisDate, address _Person) public {\n    Diagnoses[_Person].push(Diagnosis(_Diagnosis, _DiagnosisDate, msg.sender));\n}\n\nfunction AddMedicalTest(string memory _MedicalTest, string memory _MedicalTestDate, string memory _MedicalTestResult, address _Person) public {\n    MedicalTests[_Person].push(MedicalTest(_MedicalTest, _MedicalTestDate, _MedicalTestResult, msg.sender));\n}\n\nfunction UpdateMedicalTestResult(uint _MedicalTestIndex, string memory _MedicalTestResult, address _Person) public {\n    MedicalTests[_Person][_MedicalTestIndex].MedicalTestResult = _MedicalTestResult;\n}\n\n\n\nfunction GetAddressFromNationalID(string memory _NationalID) public view returns (address) {\n    return NationalIDToAddress[_NationalID];\n}\n\nfunction GetPersonalDetails(address _Person) public view returns (PersonalDetails memory) {\n    return userDetails[_Person];\n\n}\n\n\nfunction GetAllergies(address _Person) public view returns (string[] memory) {\n    return Allergies[_Person];\n}\n\nfunction GetMedicalConditions(address _Person) public view returns (string[] memory) {\n    return MedicalConditions[_Person];\n}\n\nfunction GetBloodType(address _Person) public view returns (BloodType memory) {\n    return BloodTypes[_Person];\n}\n\nfunction GetPrescriptions(address _Person) public view returns (Prescription[] memory) {\n    return Prescriptions[_Person];\n}\n\nfunction GetDiagnoses(address _Person) public view returns (Diagnosis[] memory) {\n    return Diagnoses[_Person];\n}\n\nfunction GetMedicalTests(address _Person) public view returns (MedicalTest[] memory) {\n    return MedicalTests[_Person];\n}\n\n//get document function\nfunction GetDocument(string memory _DocumentType, address _Person) public view returns (DocumentStruct memory) {\n    return Documents[_Person][_DocumentType];\n}\n\nfunction GetRegisteredDocuments(address _Person) public view returns (string[] memory) {\n    return RegiateredDocuments[_Person];\n}\n\n\n\n\n}",
  "sourcePath": "C:\\Users\\tinob\\Desktop\\Presantation\\Arthur\\contracts\\IdentityManagement.sol",
  "compiler": {
    "name": "solc",
    "version": "0.8.17+commit.8df45f5f.Emscripten.clang"
  },
  "schemaVersion": "3.4.13",
  "updatedAt": "2023-05-04T10:14:43.176Z",
  "networkType": "ethereum",
  "devdoc": {
    "kind": "dev",
    "methods": {},
    "version": 1
  },
  "userdoc": {
    "kind": "user",
    "methods": {},
    "version": 1
  }
}