{
  "contractName": "PractitionerContract",
  "abi": [
    {
      "inputs": [
        {
          "internalType": "address",
          "name": "",
          "type": "address"
        }
      ],
      "name": "MedicalPractitioners",
      "outputs": [
        {
          "internalType": "string",
          "name": "Name",
          "type": "string"
        },
        {
          "internalType": "string",
          "name": "Institute",
          "type": "string"
        },
        {
          "internalType": "string",
          "name": "Qualification",
          "type": "string"
        },
        {
          "internalType": "string",
          "name": "RegistrationNumber",
          "type": "string"
        },
        {
          "internalType": "string",
          "name": "HomeAddress",
          "type": "string"
        },
        {
          "internalType": "string",
          "name": "NationalID",
          "type": "string"
        },
        {
          "internalType": "string",
          "name": "WorkAddress",
          "type": "string"
        },
        {
          "internalType": "string",
          "name": "WorkNumber",
          "type": "string"
        },
        {
          "internalType": "string",
          "name": "WorkEmail",
          "type": "string"
        },
        {
          "internalType": "string",
          "name": "Specialities",
          "type": "string"
        }
      ],
      "stateMutability": "view",
      "type": "function",
      "constant": true
    },
    {
      "inputs": [
        {
          "internalType": "string",
          "name": "",
          "type": "string"
        }
      ],
      "name": "NationalIDToAddressP",
      "outputs": [
        {
          "internalType": "address",
          "name": "",
          "type": "address"
        }
      ],
      "stateMutability": "view",
      "type": "function",
      "constant": true
    },
    {
      "inputs": [
        {
          "internalType": "uint256",
          "name": "",
          "type": "uint256"
        }
      ],
      "name": "RegisteredPrac",
      "outputs": [
        {
          "internalType": "address",
          "name": "",
          "type": "address"
        }
      ],
      "stateMutability": "view",
      "type": "function",
      "constant": true
    },
    {
      "inputs": [
        {
          "internalType": "string",
          "name": "_Name",
          "type": "string"
        },
        {
          "internalType": "string",
          "name": "_Institute",
          "type": "string"
        },
        {
          "internalType": "string",
          "name": "_Qualification",
          "type": "string"
        },
        {
          "internalType": "string",
          "name": "_RegistrationNumber",
          "type": "string"
        },
        {
          "internalType": "string",
          "name": "_HomeAddress",
          "type": "string"
        },
        {
          "internalType": "string",
          "name": "_NationalID",
          "type": "string"
        },
        {
          "internalType": "string",
          "name": "_WorkAddress",
          "type": "string"
        },
        {
          "internalType": "string",
          "name": "_WorkNumber",
          "type": "string"
        },
        {
          "internalType": "string",
          "name": "_WorkEmail",
          "type": "string"
        },
        {
          "internalType": "string",
          "name": "_Specialities",
          "type": "string"
        }
      ],
      "name": "AddMedicalPractitioner",
      "outputs": [],
      "stateMutability": "nonpayable",
      "type": "function"
    },
    {
      "inputs": [],
      "name": "GetRegisteredUsers",
      "outputs": [
        {
          "internalType": "address[]",
          "name": "",
          "type": "address[]"
        }
      ],
      "stateMutability": "view",
      "type": "function",
      "constant": true
    },
    {
      "inputs": [
        {
          "internalType": "address",
          "name": "_Person",
          "type": "address"
        }
      ],
      "name": "GetMedicalPractitioner",
      "outputs": [
        {
          "components": [
            {
              "internalType": "string",
              "name": "Name",
              "type": "string"
            },
            {
              "internalType": "string",
              "name": "Institute",
              "type": "string"
            },
            {
              "internalType": "string",
              "name": "Qualification",
              "type": "string"
            },
            {
              "internalType": "string",
              "name": "RegistrationNumber",
              "type": "string"
            },
            {
              "internalType": "string",
              "name": "HomeAddress",
              "type": "string"
            },
            {
              "internalType": "string",
              "name": "NationalID",
              "type": "string"
            },
            {
              "internalType": "string",
              "name": "WorkAddress",
              "type": "string"
            },
            {
              "internalType": "string",
              "name": "WorkNumber",
              "type": "string"
            },
            {
              "internalType": "string",
              "name": "WorkEmail",
              "type": "string"
            },
            {
              "internalType": "string",
              "name": "Specialities",
              "type": "string"
            }
          ],
          "internalType": "struct PractitionerContract.MedicalPractitioner",
          "name": "",
          "type": "tuple"
        }
      ],
      "stateMutability": "view",
      "type": "function",
      "constant": true
    },
    {
      "inputs": [
        {
          "internalType": "string",
          "name": "_NationalID",
          "type": "string"
        }
      ],
      "name": "GetAddressFromNationalIDP",
      "outputs": [
        {
          "internalType": "address",
          "name": "",
          "type": "address"
        }
      ],
      "stateMutability": "view",
      "type": "function",
      "constant": true
    }
  ],
  "bytecode": "0x608060405234801561001057600080fd5b50611ed8806100206000396000f3fe608060405234801561001057600080fd5b506004361061007d5760003560e01c80635128845e1161005b5780635128845e146100fe57806391e0f1d91461012e578063a86bb0bb1461014c578063e84f2249146101855761007d565b8063019fb16714610082578063444d3148146100b25780634a713c02146100e2575b600080fd5b61009c60048036038101906100979190611453565b6101b5565b6040516100a991906114dd565b60405180910390f35b6100cc60048036038101906100c79190611453565b6101fe565b6040516100d991906114dd565b60405180910390f35b6100fc60048036038101906100f791906114f8565b610246565b005b61011860048036038101906101139190611725565b610628565b60405161012591906114dd565b60405180910390f35b610136610667565b6040516101439190611810565b60405180910390f35b6101666004803603810190610161919061185e565b6106f5565b60405161017c9a9998979695949392919061190a565b60405180910390f35b61019f600480360381019061019a919061185e565b610c99565b6040516101ac9190611b4f565b60405180910390f35b6001818051602081018201805184825260208301602085012081835280955050505050506000915054906101000a900473ffffffffffffffffffffffffffffffffffffffff1681565b60006001826040516102109190611bad565b908152602001604051809103902060009054906101000a900473ffffffffffffffffffffffffffffffffffffffff169050919050565b896000803373ffffffffffffffffffffffffffffffffffffffff1673ffffffffffffffffffffffffffffffffffffffff16815260200190815260200160002060000190816102949190611dd0565b50886000803373ffffffffffffffffffffffffffffffffffffffff1673ffffffffffffffffffffffffffffffffffffffff16815260200190815260200160002060010190816102e39190611dd0565b50876000803373ffffffffffffffffffffffffffffffffffffffff1673ffffffffffffffffffffffffffffffffffffffff16815260200190815260200160002060020190816103329190611dd0565b50866000803373ffffffffffffffffffffffffffffffffffffffff1673ffffffffffffffffffffffffffffffffffffffff16815260200190815260200160002060030190816103819190611dd0565b50856000803373ffffffffffffffffffffffffffffffffffffffff1673ffffffffffffffffffffffffffffffffffffffff16815260200190815260200160002060040190816103d09190611dd0565b50846000803373ffffffffffffffffffffffffffffffffffffffff1673ffffffffffffffffffffffffffffffffffffffff168152602001908152602001600020600501908161041f9190611dd0565b50836000803373ffffffffffffffffffffffffffffffffffffffff1673ffffffffffffffffffffffffffffffffffffffff168152602001908152602001600020600601908161046e9190611dd0565b50826000803373ffffffffffffffffffffffffffffffffffffffff1673ffffffffffffffffffffffffffffffffffffffff16815260200190815260200160002060070190816104bd9190611dd0565b50816000803373ffffffffffffffffffffffffffffffffffffffff1673ffffffffffffffffffffffffffffffffffffffff168152602001908152602001600020600801908161050c9190611dd0565b50806000803373ffffffffffffffffffffffffffffffffffffffff1673ffffffffffffffffffffffffffffffffffffffff168152602001908152602001600020600901908161055b9190611dd0565b503360018660405161056d9190611bad565b908152602001604051809103902060006101000a81548173ffffffffffffffffffffffffffffffffffffffff021916908373ffffffffffffffffffffffffffffffffffffffff1602179055506002339080600181540180825580915050600190039060005260206000200160009091909190916101000a81548173ffffffffffffffffffffffffffffffffffffffff021916908373ffffffffffffffffffffffffffffffffffffffff16021790555050505050505050505050565b6002818154811061063857600080fd5b906000526020600020016000915054906101000a900473ffffffffffffffffffffffffffffffffffffffff1681565b606060028054806020026020016040519081016040528092919081815260200182805480156106eb57602002820191906000526020600020905b8160009054906101000a900473ffffffffffffffffffffffffffffffffffffffff1673ffffffffffffffffffffffffffffffffffffffff16815260200190600101908083116106a1575b5050505050905090565b600060205280600052604060002060009150905080600001805461071890611bf3565b80601f016020809104026020016040519081016040528092919081815260200182805461074490611bf3565b80156107915780601f1061076657610100808354040283529160200191610791565b820191906000526020600020905b81548152906001019060200180831161077457829003601f168201915b5050505050908060010180546107a690611bf3565b80601f01602080910402602001604051908101604052809291908181526020018280546107d290611bf3565b801561081f5780601f106107f45761010080835404028352916020019161081f565b820191906000526020600020905b81548152906001019060200180831161080257829003601f168201915b50505050509080600201805461083490611bf3565b80601f016020809104026020016040519081016040528092919081815260200182805461086090611bf3565b80156108ad5780601f10610882576101008083540402835291602001916108ad565b820191906000526020600020905b81548152906001019060200180831161089057829003601f168201915b5050505050908060030180546108c290611bf3565b80601f01602080910402602001604051908101604052809291908181526020018280546108ee90611bf3565b801561093b5780601f106109105761010080835404028352916020019161093b565b820191906000526020600020905b81548152906001019060200180831161091e57829003601f168201915b50505050509080600401805461095090611bf3565b80601f016020809104026020016040519081016040528092919081815260200182805461097c90611bf3565b80156109c95780601f1061099e576101008083540402835291602001916109c9565b820191906000526020600020905b8154815290600101906020018083116109ac57829003601f168201915b5050505050908060050180546109de90611bf3565b80601f0160208091040260200160405190810160405280929190818152602001828054610a0a90611bf3565b8015610a575780601f10610a2c57610100808354040283529160200191610a57565b820191906000526020600020905b815481529060010190602001808311610a3a57829003601f168201915b505050505090806006018054610a6c90611bf3565b80601f0160208091040260200160405190810160405280929190818152602001828054610a9890611bf3565b8015610ae55780601f10610aba57610100808354040283529160200191610ae5565b820191906000526020600020905b815481529060010190602001808311610ac857829003601f168201915b505050505090806007018054610afa90611bf3565b80601f0160208091040260200160405190810160405280929190818152602001828054610b2690611bf3565b8015610b735780601f10610b4857610100808354040283529160200191610b73565b820191906000526020600020905b815481529060010190602001808311610b5657829003601f168201915b505050505090806008018054610b8890611bf3565b80601f0160208091040260200160405190810160405280929190818152602001828054610bb490611bf3565b8015610c015780601f10610bd657610100808354040283529160200191610c01565b820191906000526020600020905b815481529060010190602001808311610be457829003601f168201915b505050505090806009018054610c1690611bf3565b80601f0160208091040260200160405190810160405280929190818152602001828054610c4290611bf3565b8015610c8f5780601f10610c6457610100808354040283529160200191610c8f565b820191906000526020600020905b815481529060010190602001808311610c7257829003601f168201915b505050505090508a565b610ca16112a6565b6000808373ffffffffffffffffffffffffffffffffffffffff1673ffffffffffffffffffffffffffffffffffffffff16815260200190815260200160002060405180610140016040529081600082018054610cfb90611bf3565b80601f0160208091040260200160405190810160405280929190818152602001828054610d2790611bf3565b8015610d745780601f10610d4957610100808354040283529160200191610d74565b820191906000526020600020905b815481529060010190602001808311610d5757829003601f168201915b50505050508152602001600182018054610d8d90611bf3565b80601f0160208091040260200160405190810160405280929190818152602001828054610db990611bf3565b8015610e065780601f10610ddb57610100808354040283529160200191610e06565b820191906000526020600020905b815481529060010190602001808311610de957829003601f168201915b50505050508152602001600282018054610e1f90611bf3565b80601f0160208091040260200160405190810160405280929190818152602001828054610e4b90611bf3565b8015610e985780601f10610e6d57610100808354040283529160200191610e98565b820191906000526020600020905b815481529060010190602001808311610e7b57829003601f168201915b50505050508152602001600382018054610eb190611bf3565b80601f0160208091040260200160405190810160405280929190818152602001828054610edd90611bf3565b8015610f2a5780601f10610eff57610100808354040283529160200191610f2a565b820191906000526020600020905b815481529060010190602001808311610f0d57829003601f168201915b50505050508152602001600482018054610f4390611bf3565b80601f0160208091040260200160405190810160405280929190818152602001828054610f6f90611bf3565b8015610fbc5780601f10610f9157610100808354040283529160200191610fbc565b820191906000526020600020905b815481529060010190602001808311610f9f57829003601f168201915b50505050508152602001600582018054610fd590611bf3565b80601f016020809104026020016040519081016040528092919081815260200182805461100190611bf3565b801561104e5780601f106110235761010080835404028352916020019161104e565b820191906000526020600020905b81548152906001019060200180831161103157829003601f168201915b5050505050815260200160068201805461106790611bf3565b80601f016020809104026020016040519081016040528092919081815260200182805461109390611bf3565b80156110e05780601f106110b5576101008083540402835291602001916110e0565b820191906000526020600020905b8154815290600101906020018083116110c357829003601f168201915b505050505081526020016007820180546110f990611bf3565b80601f016020809104026020016040519081016040528092919081815260200182805461112590611bf3565b80156111725780601f1061114757610100808354040283529160200191611172565b820191906000526020600020905b81548152906001019060200180831161115557829003601f168201915b5050505050815260200160088201805461118b90611bf3565b80601f01602080910402602001604051908101604052809291908181526020018280546111b790611bf3565b80156112045780601f106111d957610100808354040283529160200191611204565b820191906000526020600020905b8154815290600101906020018083116111e757829003601f168201915b5050505050815260200160098201805461121d90611bf3565b80601f016020809104026020016040519081016040528092919081815260200182805461124990611bf3565b80156112965780601f1061126b57610100808354040283529160200191611296565b820191906000526020600020905b81548152906001019060200180831161127957829003601f168201915b5050505050815250509050919050565b604051806101400160405280606081526020016060815260200160608152602001606081526020016060815260200160608152602001606081526020016060815260200160608152602001606081525090565b6000604051905090565b600080fd5b600080fd5b600080fd5b600080fd5b6000601f19601f8301169050919050565b7f4e487b7100000000000000000000000000000000000000000000000000000000600052604160045260246000fd5b61136082611317565b810181811067ffffffffffffffff8211171561137f5761137e611328565b5b80604052505050565b60006113926112f9565b905061139e8282611357565b919050565b600067ffffffffffffffff8211156113be576113bd611328565b5b6113c782611317565b9050602081019050919050565b82818337600083830152505050565b60006113f66113f1846113a3565b611388565b90508281526020810184848401111561141257611411611312565b5b61141d8482856113d4565b509392505050565b600082601f83011261143a5761143961130d565b5b813561144a8482602086016113e3565b91505092915050565b60006020828403121561146957611468611303565b5b600082013567ffffffffffffffff81111561148757611486611308565b5b61149384828501611425565b91505092915050565b600073ffffffffffffffffffffffffffffffffffffffff82169050919050565b60006114c78261149c565b9050919050565b6114d7816114bc565b82525050565b60006020820190506114f260008301846114ce565b92915050565b6000806000806000806000806000806101408b8d03121561151c5761151b611303565b5b60008b013567ffffffffffffffff81111561153a57611539611308565b5b6115468d828e01611425565b9a505060208b013567ffffffffffffffff81111561156757611566611308565b5b6115738d828e01611425565b99505060408b013567ffffffffffffffff81111561159457611593611308565b5b6115a08d828e01611425565b98505060608b013567ffffffffffffffff8111156115c1576115c0611308565b5b6115cd8d828e01611425565b97505060808b013567ffffffffffffffff8111156115ee576115ed611308565b5b6115fa8d828e01611425565b96505060a08b013567ffffffffffffffff81111561161b5761161a611308565b5b6116278d828e01611425565b95505060c08b013567ffffffffffffffff81111561164857611647611308565b5b6116548d828e01611425565b94505060e08b013567ffffffffffffffff81111561167557611674611308565b5b6116818d828e01611425565b9350506101008b013567ffffffffffffffff8111156116a3576116a2611308565b5b6116af8d828e01611425565b9250506101208b013567ffffffffffffffff8111156116d1576116d0611308565b5b6116dd8d828e01611425565b9150509295989b9194979a5092959850565b6000819050919050565b611702816116ef565b811461170d57600080fd5b50565b60008135905061171f816116f9565b92915050565b60006020828403121561173b5761173a611303565b5b600061174984828501611710565b91505092915050565b600081519050919050565b600082825260208201905092915050565b6000819050602082019050919050565b611787816114bc565b82525050565b6000611799838361177e565b60208301905092915050565b6000602082019050919050565b60006117bd82611752565b6117c7818561175d565b93506117d28361176e565b8060005b838110156118035781516117ea888261178d565b97506117f5836117a5565b9250506001810190506117d6565b5085935050505092915050565b6000602082019050818103600083015261182a81846117b2565b905092915050565b61183b816114bc565b811461184657600080fd5b50565b60008135905061185881611832565b92915050565b60006020828403121561187457611873611303565b5b600061188284828501611849565b91505092915050565b600081519050919050565b600082825260208201905092915050565b60005b838110156118c55780820151818401526020810190506118aa565b60008484015250505050565b60006118dc8261188b565b6118e68185611896565b93506118f68185602086016118a7565b6118ff81611317565b840191505092915050565b6000610140820190508181036000830152611925818d6118d1565b90508181036020830152611939818c6118d1565b9050818103604083015261194d818b6118d1565b90508181036060830152611961818a6118d1565b9050818103608083015261197581896118d1565b905081810360a083015261198981886118d1565b905081810360c083015261199d81876118d1565b905081810360e08301526119b181866118d1565b90508181036101008301526119c681856118d1565b90508181036101208301526119db81846118d1565b90509b9a5050505050505050505050565b600082825260208201905092915050565b6000611a088261188b565b611a1281856119ec565b9350611a228185602086016118a7565b611a2b81611317565b840191505092915050565b6000610140830160008301518482036000860152611a5482826119fd565b91505060208301518482036020860152611a6e82826119fd565b91505060408301518482036040860152611a8882826119fd565b91505060608301518482036060860152611aa282826119fd565b91505060808301518482036080860152611abc82826119fd565b91505060a083015184820360a0860152611ad682826119fd565b91505060c083015184820360c0860152611af082826119fd565b91505060e083015184820360e0860152611b0a82826119fd565b915050610100830151848203610100860152611b2682826119fd565b915050610120830151848203610120860152611b4282826119fd565b9150508091505092915050565b60006020820190508181036000830152611b698184611a36565b905092915050565b600081905092915050565b6000611b878261188b565b611b918185611b71565b9350611ba18185602086016118a7565b80840191505092915050565b6000611bb98284611b7c565b915081905092915050565b7f4e487b7100000000000000000000000000000000000000000000000000000000600052602260045260246000fd5b60006002820490506001821680611c0b57607f821691505b602082108103611c1e57611c1d611bc4565b5b50919050565b60008190508160005260206000209050919050565b60006020601f8301049050919050565b600082821b905092915050565b600060088302611c867fffffffffffffffffffffffffffffffffffffffffffffffffffffffffffffffff82611c49565b611c908683611c49565b95508019841693508086168417925050509392505050565b6000819050919050565b6000611ccd611cc8611cc3846116ef565b611ca8565b6116ef565b9050919050565b6000819050919050565b611ce783611cb2565b611cfb611cf382611cd4565b848454611c56565b825550505050565b600090565b611d10611d03565b611d1b818484611cde565b505050565b5b81811015611d3f57611d34600082611d08565b600181019050611d21565b5050565b601f821115611d8457611d5581611c24565b611d5e84611c39565b81016020851015611d6d578190505b611d81611d7985611c39565b830182611d20565b50505b505050565b600082821c905092915050565b6000611da760001984600802611d89565b1980831691505092915050565b6000611dc08383611d96565b9150826002028217905092915050565b611dd98261188b565b67ffffffffffffffff811115611df257611df1611328565b5b611dfc8254611bf3565b611e07828285611d43565b600060209050601f831160018114611e3a5760008415611e28578287015190505b611e328582611db4565b865550611e9a565b601f198416611e4886611c24565b60005b82811015611e7057848901518255600182019150602085019450602081019050611e4b565b86831015611e8d5784890151611e89601f891682611d96565b8355505b6001600288020188555050505b50505050505056fea2646970667358221220d86bffddb4ef5ecac17a6b204d91c6c94c554c160b6faf730fa7853180c9959b64736f6c63430008110033",
  "immutableReferences": {},
  "source": "// SPDX-License-Identifier: MIT\npragma solidity >=0.4.25 <0.9.0;\n\ncontract PractitionerContract {\n\nstruct MedicalPractitioner{\n  string Name;\n  string Institute; // queenmar clinic\n  string Qualification; // MBChB\n  string RegistrationNumber; // 123456789\n  string HomeAddress;\n  string NationalID;\n  string WorkAddress;\n  string WorkNumber;\n  string WorkEmail;\n  string Specialities;\n\n}\n\nmapping (address => MedicalPractitioner) public MedicalPractitioners; // {address=>MedicalPractitioner}\nmapping (string => address) public NationalIDToAddressP;\naddress[] public RegisteredPrac;\n\nfunction AddMedicalPractitioner(string memory _Name, string memory _Institute, string memory _Qualification, string memory _RegistrationNumber, string memory _HomeAddress, string memory _NationalID, string memory _WorkAddress, string memory _WorkNumber, string memory _WorkEmail, string memory _Specialities) public {\n    MedicalPractitioners[msg.sender].Name = _Name;\n    MedicalPractitioners[msg.sender].Institute = _Institute;\n    MedicalPractitioners[msg.sender].Qualification = _Qualification;\n    MedicalPractitioners[msg.sender].RegistrationNumber = _RegistrationNumber;\n    MedicalPractitioners[msg.sender].HomeAddress = _HomeAddress;\n    MedicalPractitioners[msg.sender].NationalID = _NationalID;\n    MedicalPractitioners[msg.sender].WorkAddress = _WorkAddress;\n    MedicalPractitioners[msg.sender].WorkNumber = _WorkNumber;\n    MedicalPractitioners[msg.sender].WorkEmail = _WorkEmail;\n    MedicalPractitioners[msg.sender].Specialities = _Specialities;\n    NationalIDToAddressP[_NationalID] = msg.sender;\n    RegisteredPrac.push(msg.sender);\n}\n\n\nfunction GetRegisteredUsers() public view returns (address[] memory) {\n    return RegisteredPrac;\n}\n\nfunction GetMedicalPractitioner(address _Person) public view returns (MedicalPractitioner memory) {\n    return MedicalPractitioners[_Person];\n}\n\nfunction GetAddressFromNationalIDP(string memory _NationalID) public view returns (address) {\n    return NationalIDToAddressP[_NationalID];}\n\n\n}",
  "sourcePath": "C:\\Users\\tinob\\Desktop\\Presantation\\Arthur\\contracts\\PractitionerContract.sol",
  "compiler": {
    "name": "solc",
    "version": "0.8.17+commit.8df45f5f.Emscripten.clang"
  },
  "schemaVersion": "3.4.13",
  "updatedAt": "2023-05-04T10:14:43.441Z",
  "networkType": "ethereum",
  "devdoc": {
    "kind": "dev",
    "methods": {},
    "version": 1
  },
  "userdoc": {
    "kind": "user",
    "methods": {},
    "version": 1
  }
}